{
  "contractName": "CrowdSensing",
  "abi": [
    {
      "inputs": [
        {
          "internalType": "uint256",
          "name": "_minParticipants",
          "type": "uint256"
        },
        {
          "internalType": "uint256",
          "name": "_rewardAmount",
          "type": "uint256"
        },
        {
          "internalType": "uint256",
          "name": "_fee",
          "type": "uint256"
        }
      ],
      "stateMutability": "nonpayable",
      "type": "constructor"
    },
    {
      "anonymous": false,
      "inputs": [],
      "name": "CampaignClosed",
      "type": "event"
    },
    {
      "anonymous": false,
      "inputs": [
        {
          "indexed": true,
          "internalType": "address",
          "name": "user",
          "type": "address"
        },
        {
          "indexed": false,
          "internalType": "string",
          "name": "dataLocation",
          "type": "string"
        }
      ],
      "name": "DataSubmitted",
      "type": "event"
    },
    {
      "anonymous": false,
      "inputs": [
        {
          "indexed": true,
          "internalType": "address",
          "name": "verifier",
          "type": "address"
        },
        {
          "indexed": true,
          "internalType": "address",
          "name": "user",
          "type": "address"
        },
        {
          "indexed": false,
          "internalType": "bool",
          "name": "isValid",
          "type": "bool"
        }
      ],
      "name": "DataVerified",
      "type": "event"
    },
    {
      "anonymous": false,
      "inputs": [
        {
          "indexed": true,
          "internalType": "address",
          "name": "user",
          "type": "address"
        },
        {
          "indexed": false,
          "internalType": "bytes32",
          "name": "encryptionKey",
          "type": "bytes32"
        },
        {
          "indexed": false,
          "internalType": "uint256",
          "name": "chunkSize",
          "type": "uint256"
        }
      ],
      "name": "EncryptionKeyGenerated",
      "type": "event"
    },
    {
      "anonymous": false,
      "inputs": [
        {
          "indexed": true,
          "internalType": "address",
          "name": "user",
          "type": "address"
        },
        {
          "indexed": false,
          "internalType": "bytes32",
          "name": "encryptionKey",
          "type": "bytes32"
        }
      ],
      "name": "EncryptionKeyShared",
      "type": "event"
    },
    {
      "anonymous": false,
      "inputs": [
        {
          "indexed": false,
          "internalType": "uint256",
          "name": "oldFee",
          "type": "uint256"
        },
        {
          "indexed": false,
          "internalType": "uint256",
          "name": "newFee",
          "type": "uint256"
        }
      ],
      "name": "FeeUpdated",
      "type": "event"
    },
    {
      "anonymous": false,
      "inputs": [
        {
          "indexed": true,
          "internalType": "address",
          "name": "user",
          "type": "address"
        },
        {
          "indexed": false,
          "internalType": "uint256",
          "name": "amount",
          "type": "uint256"
        }
      ],
      "name": "RewardDistributed",
      "type": "event"
    },
    {
      "anonymous": false,
      "inputs": [
        {
          "indexed": false,
          "internalType": "address",
          "name": "verifier",
          "type": "address"
        }
      ],
      "name": "VerifierAdded",
      "type": "event"
    },
    {
      "anonymous": false,
      "inputs": [
        {
          "indexed": false,
          "internalType": "address",
          "name": "verifier",
          "type": "address"
        }
      ],
      "name": "VerifierRemoved",
      "type": "event"
    },
    {
      "anonymous": false,
      "inputs": [
        {
          "indexed": true,
          "internalType": "address",
          "name": "verifier",
          "type": "address"
        },
        {
          "indexed": false,
          "internalType": "uint256",
          "name": "amount",
          "type": "uint256"
        }
      ],
      "name": "VerifierRewarded",
      "type": "event"
    },
    {
      "inputs": [
        {
          "internalType": "address",
          "name": "",
          "type": "address"
        }
      ],
      "name": "assignedVerifiers",
      "outputs": [
        {
          "internalType": "address",
          "name": "",
          "type": "address"
        }
      ],
      "stateMutability": "view",
      "type": "function"
    },
    {
      "inputs": [],
      "name": "campaign",
      "outputs": [
        {
          "internalType": "uint256",
          "name": "minParticipants",
          "type": "uint256"
        },
        {
          "internalType": "uint256",
          "name": "currentParticipants",
          "type": "uint256"
        },
        {
          "internalType": "uint256",
          "name": "rewardAmount",
          "type": "uint256"
        },
        {
          "internalType": "bool",
          "name": "isClosed",
          "type": "bool"
        }
      ],
      "stateMutability": "view",
      "type": "function"
    },
    {
      "inputs": [],
      "name": "fee",
      "outputs": [
        {
          "internalType": "uint256",
          "name": "",
          "type": "uint256"
        }
      ],
      "stateMutability": "view",
      "type": "function"
    },
    {
      "inputs": [],
      "name": "owner",
      "outputs": [
        {
          "internalType": "address",
          "name": "",
          "type": "address"
        }
      ],
      "stateMutability": "view",
      "type": "function"
    },
    {
      "inputs": [
        {
          "internalType": "address",
          "name": "",
          "type": "address"
        }
      ],
      "name": "userData",
      "outputs": [
        {
          "internalType": "string",
          "name": "dataLocation",
          "type": "string"
        },
        {
          "internalType": "bool",
          "name": "isVerified",
          "type": "bool"
        },
        {
          "internalType": "bool",
          "name": "isRewarded",
          "type": "bool"
        },
        {
          "internalType": "bytes32",
          "name": "encryptionKey",
          "type": "bytes32"
        },
        {
          "internalType": "uint256",
          "name": "chunkSize",
          "type": "uint256"
        }
      ],
      "stateMutability": "view",
      "type": "function"
    },
    {
      "inputs": [
        {
          "internalType": "uint256",
          "name": "",
          "type": "uint256"
        }
      ],
      "name": "verifiedUsers",
      "outputs": [
        {
          "internalType": "address",
          "name": "",
          "type": "address"
        }
      ],
      "stateMutability": "view",
      "type": "function"
    },
    {
      "inputs": [
        {
          "internalType": "uint256",
          "name": "",
          "type": "uint256"
        }
      ],
      "name": "verifiers",
      "outputs": [
        {
          "internalType": "address",
          "name": "",
          "type": "address"
        }
      ],
      "stateMutability": "view",
      "type": "function"
    },
    {
      "stateMutability": "payable",
      "type": "receive"
    },
    {
      "inputs": [
        {
          "internalType": "uint256",
          "name": "_minParticipants",
          "type": "uint256"
        },
        {
          "internalType": "uint256",
          "name": "_rewardAmount",
          "type": "uint256"
        }
      ],
      "name": "restartCampaign",
      "outputs": [],
      "stateMutability": "nonpayable",
      "type": "function"
    },
    {
      "inputs": [
        {
          "internalType": "address",
          "name": "verifier",
          "type": "address"
        }
      ],
      "name": "addVerifier",
      "outputs": [],
      "stateMutability": "nonpayable",
      "type": "function"
    },
    {
      "inputs": [
        {
          "internalType": "address",
          "name": "verifier",
          "type": "address"
        }
      ],
      "name": "removeVerifier",
      "outputs": [],
      "stateMutability": "nonpayable",
      "type": "function"
    },
    {
      "inputs": [
        {
          "internalType": "address",
          "name": "verifier",
          "type": "address"
        }
      ],
      "name": "isVerifier",
      "outputs": [
        {
          "internalType": "bool",
          "name": "",
          "type": "bool"
        }
      ],
      "stateMutability": "view",
      "type": "function"
    },
    {
      "inputs": [
        {
          "internalType": "uint256",
          "name": "newFee",
          "type": "uint256"
        }
      ],
      "name": "setFee",
      "outputs": [],
      "stateMutability": "nonpayable",
      "type": "function"
    },
    {
      "inputs": [],
      "name": "requestEncryptionKey",
      "outputs": [],
      "stateMutability": "nonpayable",
      "type": "function"
    },
    {
      "inputs": [
        {
          "internalType": "string",
          "name": "dataLocation",
          "type": "string"
        }
      ],
      "name": "submitData",
      "outputs": [],
      "stateMutability": "payable",
      "type": "function"
    },
    {
      "inputs": [
        {
          "internalType": "address",
          "name": "user",
          "type": "address"
        }
      ],
      "name": "requestDataVerification",
      "outputs": [
        {
          "internalType": "string",
          "name": "",
          "type": "string"
        },
        {
          "internalType": "bytes32",
          "name": "",
          "type": "bytes32"
        }
      ],
      "stateMutability": "view",
      "type": "function"
    },
    {
      "inputs": [
        {
          "internalType": "address",
          "name": "user",
          "type": "address"
        },
        {
          "internalType": "bool",
          "name": "isValid",
          "type": "bool"
        }
      ],
      "name": "verifyData",
      "outputs": [],
      "stateMutability": "nonpayable",
      "type": "function"
    },
    {
      "inputs": [],
      "name": "distributeRewards",
      "outputs": [],
      "stateMutability": "nonpayable",
      "type": "function"
    },
    {
      "inputs": [],
      "name": "withdraw",
      "outputs": [],
      "stateMutability": "nonpayable",
      "type": "function"
    }
  ],
  "bytecode": "0x608060405234801562000010575f80fd5b506040516200309d3803806200309d833981810160405281019062000036919062000124565b335f806101000a81548173ffffffffffffffffffffffffffffffffffffffff021916908373ffffffffffffffffffffffffffffffffffffffff16021790555060405180608001604052808481526020015f81526020018381526020015f151581525060045f820151815f015560208201518160010155604082015181600201556060820151816003015f6101000a81548160ff021916908315150217905550905050806001819055505050506200017d565b5f80fd5b5f819050919050565b6200010081620000ec565b81146200010b575f80fd5b50565b5f815190506200011e81620000f5565b92915050565b5f805f606084860312156200013e576200013d620000e8565b5b5f6200014d868287016200010e565b935050602062000160868287016200010e565b925050604062000173868287016200010e565b9150509250925092565b612f12806200018b5f395ff3fe60806040526004361061010c575f3560e01c8063811e539c11610094578063a2aac7ab11610063578063a2aac7ab14610341578063ac1eff681461035d578063c891091314610399578063ca2dfd0a146103d9578063ddca3f431461040157610113565b8063811e539c146102855780638da5cb5b146102b25780639000b3d6146102dc57806399c4ad5f1461030457610113565b8063413ae9f7116100db578063413ae9f7146101cd578063554de12a146102095780636504d3501461021f57806369fe0e2d146102475780636f4a2cd01461026f57610113565b806307763ec31461011757806322bd821514610153578063331052181461017b5780633ccfd60b146101b757610113565b3661011357005b5f80fd5b348015610122575f80fd5b5061013d60048036038101906101389190611de0565b61042b565b60405161014a9190611e4a565b60405180910390f35b34801561015e575f80fd5b5061017960048036038101906101749190611ec2565b610466565b005b348015610186575f80fd5b506101a1600480360381019061019c9190611f00565b6107ae565b6040516101ae9190611f3a565b60405180910390f35b3480156101c2575f80fd5b506101cb610856565b005b3480156101d8575f80fd5b506101f360048036038101906101ee9190611f00565b610999565b6040516102009190611e4a565b60405180910390f35b348015610214575f80fd5b5061021d6109c9565b005b34801561022a575f80fd5b5061024560048036038101906102409190611f53565b610b66565b005b348015610252575f80fd5b5061026d60048036038101906102689190611de0565b610e00565b005b34801561027a575f80fd5b50610283610f14565b005b348015610290575f80fd5b5061029961131b565b6040516102a99493929190611fa0565b60405180910390f35b3480156102bd575f80fd5b506102c6611344565b6040516102d39190611e4a565b60405180910390f35b3480156102e7575f80fd5b5061030260048036038101906102fd9190611f00565b611367565b005b34801561030f575f80fd5b5061032a60048036038101906103259190611f00565b61148e565b604051610338929190612085565b60405180910390f35b61035b600480360381019061035691906121df565b61166e565b005b348015610368575f80fd5b50610383600480360381019061037e9190611de0565b61193b565b6040516103909190611e4a565b60405180910390f35b3480156103a4575f80fd5b506103bf60048036038101906103ba9190611f00565b611976565b6040516103d0959493929190612226565b60405180910390f35b3480156103e4575f80fd5b506103ff60048036038101906103fa9190611f00565b611a47565b005b34801561040c575f80fd5b50610415611c8e565b604051610422919061227e565b60405180910390f35b6008818154811061043a575f80fd5b905f5260205f20015f915054906101000a900473ffffffffffffffffffffffffffffffffffffffff1681565b60035f8373ffffffffffffffffffffffffffffffffffffffff1673ffffffffffffffffffffffffffffffffffffffff1681526020019081526020015f205f9054906101000a900473ffffffffffffffffffffffffffffffffffffffff1673ffffffffffffffffffffffffffffffffffffffff163373ffffffffffffffffffffffffffffffffffffffff1614610530576040517f08c379a0000000000000000000000000000000000000000000000000000000008152600401610527906122e1565b60405180910390fd5b60025f8373ffffffffffffffffffffffffffffffffffffffff1673ffffffffffffffffffffffffffffffffffffffff1681526020019081526020015f206001015f9054906101000a900460ff16156105bd576040517f08c379a00000000000000000000000000000000000000000000000000000000081526004016105b490612349565b60405180910390fd5b8060025f8473ffffffffffffffffffffffffffffffffffffffff1673ffffffffffffffffffffffffffffffffffffffff1681526020019081526020015f206001015f6101000a81548160ff021916908315150217905550801561074557600160046001015f82825461062f9190612394565b92505081905550600882908060018154018082558091505060019003905f5260205f20015f9091909190916101000a81548173ffffffffffffffffffffffffffffffffffffffff021916908373ffffffffffffffffffffffffffffffffffffffff1602179055503373ffffffffffffffffffffffffffffffffffffffff166108fc60026001546106bf91906123f4565b90811502906040515f60405180830381858888f193505050501580156106e7573d5f803e3d5ffd5b503373ffffffffffffffffffffffffffffffffffffffff167fb3e9dda0823f5b150fd02585edcfd867ce3a8eadcedc454f91aa2e6e5e69261d600260015461072f91906123f4565b60405161073c919061227e565b60405180910390a25b8173ffffffffffffffffffffffffffffffffffffffff163373ffffffffffffffffffffffffffffffffffffffff167f205625dfae4942dae1b607a3d6a3287dcb992cdea2e22a7d898f133d24eea06b836040516107a29190611f3a565b60405180910390a35050565b5f805f90505b60098054905081101561084c578273ffffffffffffffffffffffffffffffffffffffff16600982815481106107ec576107eb612424565b5b905f5260205f20015f9054906101000a900473ffffffffffffffffffffffffffffffffffffffff1673ffffffffffffffffffffffffffffffffffffffff1603610839576001915050610851565b808061084490612451565b9150506107b4565b505f90505b919050565b5f8054906101000a900473ffffffffffffffffffffffffffffffffffffffff1673ffffffffffffffffffffffffffffffffffffffff163373ffffffffffffffffffffffffffffffffffffffff16146108e3576040517f08c379a00000000000000000000000000000000000000000000000000000000081526004016108da906124e2565b60405180910390fd5b60046003015f9054906101000a900460ff16610934576040517f08c379a000000000000000000000000000000000000000000000000000000000815260040161092b9061254a565b60405180910390fd5b5f8054906101000a900473ffffffffffffffffffffffffffffffffffffffff1673ffffffffffffffffffffffffffffffffffffffff166108fc4790811502906040515f60405180830381858888f19350505050158015610996573d5f803e3d5ffd5b50565b6003602052805f5260405f205f915054906101000a900473ffffffffffffffffffffffffffffffffffffffff1681565b60025f3373ffffffffffffffffffffffffffffffffffffffff1673ffffffffffffffffffffffffffffffffffffffff1681526020019081526020015f206001015f9054906101000a900460ff1615610a56576040517f08c379a0000000000000000000000000000000000000000000000000000000008152600401610a4d906125b2565b60405180910390fd5b5f3342604051602001610a6a929190612635565b6040516020818303038152906040528051906020012090505f61010090508160025f3373ffffffffffffffffffffffffffffffffffffffff1673ffffffffffffffffffffffffffffffffffffffff1681526020019081526020015f20600201819055508060025f3373ffffffffffffffffffffffffffffffffffffffff1673ffffffffffffffffffffffffffffffffffffffff1681526020019081526020015f20600301819055503373ffffffffffffffffffffffffffffffffffffffff167fec8b1b84deaffe2489e970f9379ebfa821de334b51d78bdc05a81a37b9c9fa218383604051610b5a929190612660565b60405180910390a25050565b5f8054906101000a900473ffffffffffffffffffffffffffffffffffffffff1673ffffffffffffffffffffffffffffffffffffffff163373ffffffffffffffffffffffffffffffffffffffff1614610bf3576040517f08c379a0000000000000000000000000000000000000000000000000000000008152600401610bea906124e2565b60405180910390fd5b60046003015f9054906101000a900460ff16610c44576040517f08c379a0000000000000000000000000000000000000000000000000000000008152600401610c3b906126d1565b60405180910390fd5b5f5b600880549050811015610d8b575f60025f60088481548110610c6b57610c6a612424565b5b905f5260205f20015f9054906101000a900473ffffffffffffffffffffffffffffffffffffffff1673ffffffffffffffffffffffffffffffffffffffff1673ffffffffffffffffffffffffffffffffffffffff1681526020019081526020015f206001015f6101000a81548160ff0219169083151502179055505f60025f60088481548110610cfd57610cfc612424565b5b905f5260205f20015f9054906101000a900473ffffffffffffffffffffffffffffffffffffffff1673ffffffffffffffffffffffffffffffffffffffff1673ffffffffffffffffffffffffffffffffffffffff1681526020019081526020015f2060010160016101000a81548160ff0219169083151502179055508080610d8390612451565b915050610c46565b5060085f610d999190611d63565b60405180608001604052808381526020015f81526020018281526020015f151581525060045f820151815f015560208201518160010155604082015181600201556060820151816003015f6101000a81548160ff0219169083151502179055509050505050565b5f8054906101000a900473ffffffffffffffffffffffffffffffffffffffff1673ffffffffffffffffffffffffffffffffffffffff163373ffffffffffffffffffffffffffffffffffffffff1614610e8d576040517f08c379a0000000000000000000000000000000000000000000000000000000008152600401610e84906124e2565b60405180910390fd5b5f8111610ecf576040517f08c379a0000000000000000000000000000000000000000000000000000000008152600401610ec690612739565b60405180910390fd5b7f528d9479e9f9889a87a3c30c7f7ba537e5e59c4c85a37733b16e57c62df6130260015482604051610f02929190612757565b60405180910390a18060018190555050565b5f8054906101000a900473ffffffffffffffffffffffffffffffffffffffff1673ffffffffffffffffffffffffffffffffffffffff163373ffffffffffffffffffffffffffffffffffffffff1614610fa1576040517f08c379a0000000000000000000000000000000000000000000000000000000008152600401610f98906124e2565b60405180910390fd5b60045f01546004600101541015610fed576040517f08c379a0000000000000000000000000000000000000000000000000000000008152600401610fe4906127c8565b60405180910390fd5b60046003015f9054906101000a900460ff161561103f576040517f08c379a000000000000000000000000000000000000000000000000000000000815260040161103690612830565b60405180910390fd5b600460020154600460010154611055919061284e565b471015611097576040517f08c379a000000000000000000000000000000000000000000000000000000000815260040161108e906128d9565b60405180910390fd5b5f5b6008805490508110156112cf575f600882815481106110bb576110ba612424565b5b905f5260205f20015f9054906101000a900473ffffffffffffffffffffffffffffffffffffffff16905060025f8273ffffffffffffffffffffffffffffffffffffffff1673ffffffffffffffffffffffffffffffffffffffff1681526020019081526020015f2060010160019054906101000a900460ff166112bb57600160025f8373ffffffffffffffffffffffffffffffffffffffff1673ffffffffffffffffffffffffffffffffffffffff1681526020019081526020015f2060010160016101000a81548160ff0219169083151502179055508073ffffffffffffffffffffffffffffffffffffffff166108fc60046002015490811502906040515f60405180830381858888f193505050501580156111d8573d5f803e3d5ffd5b508073ffffffffffffffffffffffffffffffffffffffff167fe34918ff1c7084970068b53fd71ad6d8b04e9f15d3886cbf006443e6cdc52ea6600460020154604051611224919061227e565b60405180910390a28073ffffffffffffffffffffffffffffffffffffffff167f799bd1c3dbf7a48c90d6858544922aa5536c7d6cbb385366c7683e08a774a12a60025f8473ffffffffffffffffffffffffffffffffffffffff1673ffffffffffffffffffffffffffffffffffffffff1681526020019081526020015f20600201546040516112b291906128f7565b60405180910390a25b5080806112c790612451565b915050611099565b50600160046003015f6101000a81548160ff0219169083151502179055507fb49a509a88f868a6f6fce6bfa9c1e1a7faf4e371b9ee245a8695b03ac90680c460405160405180910390a1565b6004805f015490806001015490806002015490806003015f9054906101000a900460ff16905084565b5f8054906101000a900473ffffffffffffffffffffffffffffffffffffffff1681565b5f8054906101000a900473ffffffffffffffffffffffffffffffffffffffff1673ffffffffffffffffffffffffffffffffffffffff163373ffffffffffffffffffffffffffffffffffffffff16146113f4576040517f08c379a00000000000000000000000000000000000000000000000000000000081526004016113eb906124e2565b60405180910390fd5b600981908060018154018082558091505060019003905f5260205f20015f9091909190916101000a81548173ffffffffffffffffffffffffffffffffffffffff021916908373ffffffffffffffffffffffffffffffffffffffff1602179055507f6d05492139c5ea989514a5d2150c028041e5c087e2a39967f67dc7d2655adb81816040516114839190611e4a565b60405180910390a150565b60605f60035f8473ffffffffffffffffffffffffffffffffffffffff1673ffffffffffffffffffffffffffffffffffffffff1681526020019081526020015f205f9054906101000a900473ffffffffffffffffffffffffffffffffffffffff1673ffffffffffffffffffffffffffffffffffffffff163373ffffffffffffffffffffffffffffffffffffffff161461155b576040517f08c379a0000000000000000000000000000000000000000000000000000000008152600401611552906122e1565b60405180910390fd5b60025f8473ffffffffffffffffffffffffffffffffffffffff1673ffffffffffffffffffffffffffffffffffffffff1681526020019081526020015f205f0160025f8573ffffffffffffffffffffffffffffffffffffffff1673ffffffffffffffffffffffffffffffffffffffff1681526020019081526020015f20600201548180546115e79061293d565b80601f01602080910402602001604051908101604052809291908181526020018280546116139061293d565b801561165e5780601f106116355761010080835404028352916020019161165e565b820191905f5260205f20905b81548152906001019060200180831161164157829003601f168201915b5050505050915091509150915091565b6001543410156116b3576040517f08c379a00000000000000000000000000000000000000000000000000000000081526004016116aa906129b7565b60405180910390fd5b60046003015f9054906101000a900460ff1615611705576040517f08c379a00000000000000000000000000000000000000000000000000000000081526004016116fc90612a1f565b60405180910390fd5b5f801b60025f3373ffffffffffffffffffffffffffffffffffffffff1673ffffffffffffffffffffffffffffffffffffffff1681526020019081526020015f206002015403611789576040517f08c379a000000000000000000000000000000000000000000000000000000000815260040161178090612a87565b60405180910390fd5b60025f3373ffffffffffffffffffffffffffffffffffffffff1673ffffffffffffffffffffffffffffffffffffffff1681526020019081526020015f206001015f9054906101000a900460ff1615611816576040517f08c379a000000000000000000000000000000000000000000000000000000000815260040161180d90612aef565b60405180910390fd5b8060025f3373ffffffffffffffffffffffffffffffffffffffff1673ffffffffffffffffffffffffffffffffffffffff1681526020019081526020015f205f0190816118629190612caa565b505f61186c611c94565b90508060035f3373ffffffffffffffffffffffffffffffffffffffff1673ffffffffffffffffffffffffffffffffffffffff1681526020019081526020015f205f6101000a81548173ffffffffffffffffffffffffffffffffffffffff021916908373ffffffffffffffffffffffffffffffffffffffff1602179055503373ffffffffffffffffffffffffffffffffffffffff167f609f5e609ad3d82219984fd111ae09ae5bb8c677c16ca76755508d98eaf52e368360405161192f9190612d79565b60405180910390a25050565b6009818154811061194a575f80fd5b905f5260205f20015f915054906101000a900473ffffffffffffffffffffffffffffffffffffffff1681565b6002602052805f5260405f205f91509050805f0180546119959061293d565b80601f01602080910402602001604051908101604052809291908181526020018280546119c19061293d565b8015611a0c5780601f106119e357610100808354040283529160200191611a0c565b820191905f5260205f20905b8154815290600101906020018083116119ef57829003601f168201915b505050505090806001015f9054906101000a900460ff16908060010160019054906101000a900460ff16908060020154908060030154905085565b5f8054906101000a900473ffffffffffffffffffffffffffffffffffffffff1673ffffffffffffffffffffffffffffffffffffffff163373ffffffffffffffffffffffffffffffffffffffff1614611ad4576040517f08c379a0000000000000000000000000000000000000000000000000000000008152600401611acb906124e2565b60405180910390fd5b5f5b600980549050811015611c8a578173ffffffffffffffffffffffffffffffffffffffff1660098281548110611b0e57611b0d612424565b5b905f5260205f20015f9054906101000a900473ffffffffffffffffffffffffffffffffffffffff1673ffffffffffffffffffffffffffffffffffffffff1603611c775760096001600980549050611b659190612d99565b81548110611b7657611b75612424565b5b905f5260205f20015f9054906101000a900473ffffffffffffffffffffffffffffffffffffffff1660098281548110611bb257611bb1612424565b5b905f5260205f20015f6101000a81548173ffffffffffffffffffffffffffffffffffffffff021916908373ffffffffffffffffffffffffffffffffffffffff1602179055506009805480611c0957611c08612dcc565b5b600190038181905f5260205f20015f6101000a81549073ffffffffffffffffffffffffffffffffffffffff021916905590557f44a3cd4eb5cc5748f6169df057b1cb2ae4c383e87cd94663c430e095d4cba42482604051611c6a9190611e4a565b60405180910390a1611c8a565b8080611c8290612451565b915050611ad6565b5050565b60015481565b5f8060098054905011611cdc576040517f08c379a0000000000000000000000000000000000000000000000000000000008152600401611cd390612e43565b60405180910390fd5b60098080549050600143611cf09190612d99565b4033604051602001611d03929190612e81565b604051602081830303815290604052805190602001205f1c611d259190612eac565b81548110611d3657611d35612424565b5b905f5260205f20015f9054906101000a900473ffffffffffffffffffffffffffffffffffffffff16905090565b5080545f8255905f5260205f2090810190611d7e9190611d81565b50565b5b80821115611d98575f815f905550600101611d82565b5090565b5f604051905090565b5f80fd5b5f80fd5b5f819050919050565b611dbf81611dad565b8114611dc9575f80fd5b50565b5f81359050611dda81611db6565b92915050565b5f60208284031215611df557611df4611da5565b5b5f611e0284828501611dcc565b91505092915050565b5f73ffffffffffffffffffffffffffffffffffffffff82169050919050565b5f611e3482611e0b565b9050919050565b611e4481611e2a565b82525050565b5f602082019050611e5d5f830184611e3b565b92915050565b611e6c81611e2a565b8114611e76575f80fd5b50565b5f81359050611e8781611e63565b92915050565b5f8115159050919050565b611ea181611e8d565b8114611eab575f80fd5b50565b5f81359050611ebc81611e98565b92915050565b5f8060408385031215611ed857611ed7611da5565b5b5f611ee585828601611e79565b9250506020611ef685828601611eae565b9150509250929050565b5f60208284031215611f1557611f14611da5565b5b5f611f2284828501611e79565b91505092915050565b611f3481611e8d565b82525050565b5f602082019050611f4d5f830184611f2b565b92915050565b5f8060408385031215611f6957611f68611da5565b5b5f611f7685828601611dcc565b9250506020611f8785828601611dcc565b9150509250929050565b611f9a81611dad565b82525050565b5f608082019050611fb35f830187611f91565b611fc06020830186611f91565b611fcd6040830185611f91565b611fda6060830184611f2b565b95945050505050565b5f81519050919050565b5f82825260208201905092915050565b5f5b8381101561201a578082015181840152602081019050611fff565b5f8484015250505050565b5f601f19601f8301169050919050565b5f61203f82611fe3565b6120498185611fed565b9350612059818560208601611ffd565b61206281612025565b840191505092915050565b5f819050919050565b61207f8161206d565b82525050565b5f6040820190508181035f83015261209d8185612035565b90506120ac6020830184612076565b9392505050565b5f80fd5b5f80fd5b7f4e487b71000000000000000000000000000000000000000000000000000000005f52604160045260245ffd5b6120f182612025565b810181811067ffffffffffffffff821117156121105761210f6120bb565b5b80604052505050565b5f612122611d9c565b905061212e82826120e8565b919050565b5f67ffffffffffffffff82111561214d5761214c6120bb565b5b61215682612025565b9050602081019050919050565b828183375f83830152505050565b5f61218361217e84612133565b612119565b90508281526020810184848401111561219f5761219e6120b7565b5b6121aa848285612163565b509392505050565b5f82601f8301126121c6576121c56120b3565b5b81356121d6848260208601612171565b91505092915050565b5f602082840312156121f4576121f3611da5565b5b5f82013567ffffffffffffffff81111561221157612210611da9565b5b61221d848285016121b2565b91505092915050565b5f60a0820190508181035f83015261223e8188612035565b905061224d6020830187611f2b565b61225a6040830186611f2b565b6122676060830185612076565b6122746080830184611f91565b9695505050505050565b5f6020820190506122915f830184611f91565b92915050565b7f4e6f742061737369676e656420766572696669657200000000000000000000005f82015250565b5f6122cb601583611fed565b91506122d682612297565b602082019050919050565b5f6020820190508181035f8301526122f8816122bf565b9050919050565b7f4461746120616c726561647920766572696669656400000000000000000000005f82015250565b5f612333601583611fed565b915061233e826122ff565b602082019050919050565b5f6020820190508181035f83015261236081612327565b9050919050565b7f4e487b71000000000000000000000000000000000000000000000000000000005f52601160045260245ffd5b5f61239e82611dad565b91506123a983611dad565b92508282019050808211156123c1576123c0612367565b5b92915050565b7f4e487b71000000000000000000000000000000000000000000000000000000005f52601260045260245ffd5b5f6123fe82611dad565b915061240983611dad565b925082612419576124186123c7565b5b828204905092915050565b7f4e487b71000000000000000000000000000000000000000000000000000000005f52603260045260245ffd5b5f61245b82611dad565b91507fffffffffffffffffffffffffffffffffffffffffffffffffffffffffffffffff820361248d5761248c612367565b5b600182019050919050565b7f43616c6c6572206973206e6f7420746865206f776e65720000000000000000005f82015250565b5f6124cc601783611fed565b91506124d782612498565b602082019050919050565b5f6020820190508181035f8301526124f9816124c0565b9050919050565b7f43616d706169676e206973207374696c6c2061637469766500000000000000005f82015250565b5f612534601883611fed565b915061253f82612500565b602082019050919050565b5f6020820190508181035f83015261256181612528565b9050919050565b7f416c7265616479207061727469636970617465640000000000000000000000005f82015250565b5f61259c601483611fed565b91506125a782612568565b602082019050919050565b5f6020820190508181035f8301526125c981612590565b9050919050565b5f8160601b9050919050565b5f6125e6826125d0565b9050919050565b5f6125f7826125dc565b9050919050565b61260f61260a82611e2a565b6125ed565b82525050565b5f819050919050565b61262f61262a82611dad565b612615565b82525050565b5f61264082856125fe565b601482019150612650828461261e565b6020820191508190509392505050565b5f6040820190506126735f830185612076565b6126806020830184611f91565b9392505050565b7f50726576696f75732063616d706169676e206e6f7420636c6f736564000000005f82015250565b5f6126bb601c83611fed565b91506126c682612687565b602082019050919050565b5f6020820190508181035f8301526126e8816126af565b9050919050565b7f466565206d7573742062652067726561746572207468616e207a65726f0000005f82015250565b5f612723601d83611fed565b915061272e826126ef565b602082019050919050565b5f6020820190508181035f83015261275081612717565b9050919050565b5f60408201905061276a5f830185611f91565b6127776020830184611f91565b9392505050565b7f5468726573686f6c64206e6f74206d65740000000000000000000000000000005f82015250565b5f6127b2601183611fed565b91506127bd8261277e565b602082019050919050565b5f6020820190508181035f8301526127df816127a6565b9050919050565b7f43616d706169676e20616c726561647920636c6f7365640000000000000000005f82015250565b5f61281a601783611fed565b9150612825826127e6565b602082019050919050565b5f6020820190508181035f8301526128478161280e565b9050919050565b5f61285882611dad565b915061286383611dad565b925082820261287181611dad565b9150828204841483151761288857612887612367565b5b5092915050565b7f496e73756666696369656e7420636f6e74726163742062616c616e63650000005f82015250565b5f6128c3601d83611fed565b91506128ce8261288f565b602082019050919050565b5f6020820190508181035f8301526128f0816128b7565b9050919050565b5f60208201905061290a5f830184612076565b92915050565b7f4e487b71000000000000000000000000000000000000000000000000000000005f52602260045260245ffd5b5f600282049050600182168061295457607f821691505b60208210810361296757612966612910565b5b50919050565b7f496e73756666696369656e7420666565000000000000000000000000000000005f82015250565b5f6129a1601083611fed565b91506129ac8261296d565b602082019050919050565b5f6020820190508181035f8301526129ce81612995565b9050919050565b7f43616d706169676e20697320636c6f73656400000000000000000000000000005f82015250565b5f612a09601283611fed565b9150612a14826129d5565b602082019050919050565b5f6020820190508181035f830152612a36816129fd565b9050919050565b7f5265717565737420656e6372797074696f6e206b6579206669727374000000005f82015250565b5f612a71601c83611fed565b9150612a7c82612a3d565b602082019050919050565b5f6020820190508181035f830152612a9e81612a65565b9050919050565b7f416c7265616479207375626d69747465640000000000000000000000000000005f82015250565b5f612ad9601183611fed565b9150612ae482612aa5565b602082019050919050565b5f6020820190508181035f830152612b0681612acd565b9050919050565b5f819050815f5260205f209050919050565b5f6020601f8301049050919050565b5f82821b905092915050565b5f60088302612b697fffffffffffffffffffffffffffffffffffffffffffffffffffffffffffffffff82612b2e565b612b738683612b2e565b95508019841693508086168417925050509392505050565b5f819050919050565b5f612bae612ba9612ba484611dad565b612b8b565b611dad565b9050919050565b5f819050919050565b612bc783612b94565b612bdb612bd382612bb5565b848454612b3a565b825550505050565b5f90565b612bef612be3565b612bfa818484612bbe565b505050565b5b81811015612c1d57612c125f82612be7565b600181019050612c00565b5050565b601f821115612c6257612c3381612b0d565b612c3c84612b1f565b81016020851015612c4b578190505b612c5f612c5785612b1f565b830182612bff565b50505b505050565b5f82821c905092915050565b5f612c825f1984600802612c67565b1980831691505092915050565b5f612c9a8383612c73565b9150826002028217905092915050565b612cb382611fe3565b67ffffffffffffffff811115612ccc57612ccb6120bb565b5b612cd6825461293d565b612ce1828285612c21565b5f60209050601f831160018114612d12575f8415612d00578287015190505b612d0a8582612c8f565b865550612d71565b601f198416612d2086612b0d565b5f5b82811015612d4757848901518255600182019150602085019450602081019050612d22565b86831015612d645784890151612d60601f891682612c73565b8355505b6001600288020188555050505b505050505050565b5f6020820190508181035f830152612d918184612035565b905092915050565b5f612da382611dad565b9150612dae83611dad565b9250828203905081811115612dc657612dc5612367565b5b92915050565b7f4e487b71000000000000000000000000000000000000000000000000000000005f52603160045260245ffd5b7f4e6f2076657269666965727320617661696c61626c65000000000000000000005f82015250565b5f612e2d601683611fed565b9150612e3882612df9565b602082019050919050565b5f6020820190508181035f830152612e5a81612e21565b9050919050565b5f819050919050565b612e7b612e768261206d565b612e61565b82525050565b5f612e8c8285612e6a565b602082019150612e9c82846125fe565b6014820191508190509392505050565b5f612eb682611dad565b9150612ec183611dad565b925082612ed157612ed06123c7565b5b82820690509291505056fea2646970667358221220b656f1e9150db649a69b21e03d9996ef8043f4514fd4972427501e9f8efb274064736f6c63430008150033",
  "immutableReferences": {},
  "source": "// SPDX-License-Identifier: MIT\r\npragma solidity ^0.8.0;\r\n\r\ncontract CrowdSensing {\r\n    // Struct to store user data information\r\n\tstruct UserData {\r\n        string dataLocation; // Indicates where the data is stored (e.g., IPFS)\r\n        bool isVerified; // Indicates whether the data has been verified\r\n        bool isRewarded; // Indicates if the user has received a reward\r\n        bytes32 encryptionKey; // Encryption key for user data\r\n        uint256 chunkSize; // Size of data chunks\r\n    }\r\n\r\n    struct Campaign {\r\n        uint256 minParticipants; // Required number of verified participants before rewards can be distributed\r\n        uint256 currentParticipants; // Number of verified users\r\n        uint256 rewardAmount; // Reward given to each verified participant\r\n        bool isClosed; // Indicates if the campaign is closed\r\n    }\r\n\r\n    address public owner; // Entity or person interested in the data gathering\r\n    uint256 public fee; // Fee to discourage cheating and prevent DoS attacks.\r\n    mapping(address => UserData) public userData; // Mapping from user address to their data\r\n    mapping(address => address) public assignedVerifiers; // Mapping from assigned verifier to each user\r\n    Campaign public campaign;\r\n    address[] public verifiedUsers; // Users whose data has been verified\r\n    address[] public verifiers;\r\n    \r\n\t// Events to log important actions\r\n    event EncryptionKeyGenerated(address indexed user, bytes32 encryptionKey, uint256 chunkSize);\r\n    event EncryptionKeyShared(address indexed user, bytes32 encryptionKey);\r\n\tevent DataSubmitted(address indexed user, string dataLocation);\r\n    event DataVerified(address indexed verifier, address indexed user, bool isValid);\r\n    event RewardDistributed(address indexed user, uint256 amount);\r\n    event VerifierAdded(address verifier);\r\n\tevent VerifierRemoved(address verifier);\r\n\tevent VerifierRewarded(address indexed verifier, uint256 amount);\r\n\tevent FeeUpdated(uint256 oldFee, uint256 newFee);\r\n    event CampaignClosed();\r\n    \r\n\t// Restrict function access to only the contract owner\r\n    modifier onlyOwner() {\r\n        require(msg.sender == owner, \"Caller is not the owner\");\r\n        _;\r\n    }\r\n    \r\n\t// Initializes the campaign and sets the contract owner\r\n    constructor(uint256 _minParticipants, uint256 _rewardAmount, uint256 _fee) {\r\n        owner = msg.sender;\r\n        campaign = Campaign(_minParticipants, 0, _rewardAmount, false);\r\n        fee = _fee;\r\n    }\r\n\t\r\n\t// Restart a new campaign after closing the previous one\r\n\tfunction restartCampaign(uint256 _minParticipants, uint256 _rewardAmount) public onlyOwner {\r\n\t\trequire(campaign.isClosed, \"Previous campaign not closed\");\r\n\r\n\t\tfor (uint256 i = 0; i < verifiedUsers.length; i++) {\r\n\t\t\tuserData[verifiedUsers[i]].isVerified = false;\r\n\t\t\tuserData[verifiedUsers[i]].isRewarded = false;\r\n\t\t}\r\n\r\n\t\tdelete verifiedUsers; // Clear after resetting user statuses\r\n\r\n\t\tcampaign = Campaign(_minParticipants, 0, _rewardAmount, false);\r\n\t}\r\n\t\t\r\n\t// Allows owner to add verifiers  \r\n    function addVerifier(address verifier) public onlyOwner {\r\n        verifiers.push(verifier);\r\n\t\temit VerifierAdded(verifier);\r\n    }\r\n    \r\n\t// Allows owner to remove verifiers\r\n    function removeVerifier(address verifier) public onlyOwner {\r\n        for (uint i = 0; i < verifiers.length; i++) {\r\n            if (verifiers[i] == verifier) {\r\n                verifiers[i] = verifiers[verifiers.length - 1];\r\n                verifiers.pop();\r\n\t\t\t\temit VerifierRemoved(verifier);\r\n                break;\r\n            }\r\n        }\r\n    }\r\n\t\r\n\t// Checks if an address is a verifier (for testing)\r\n\tfunction isVerifier(address verifier) public view returns (bool) {\r\n\t\tfor (uint i = 0; i < verifiers.length; i++) {\r\n\t\t\tif (verifiers[i] == verifier) return true;\r\n\t\t}\r\n\t\treturn false;\r\n\t}\r\n\t\r\n\t// Allows owner to change the fee\r\n\tfunction setFee(uint256 newFee) public onlyOwner {\r\n\t\trequire(newFee > 0, \"Fee must be greater than zero\");\r\n\t\temit FeeUpdated(fee, newFee);\r\n\t\tfee = newFee;\r\n\t}\r\n    \r\n\t// Allows users to request an encryption key before submitting data\r\n    function requestEncryptionKey() public {\r\n        require(!userData[msg.sender].isVerified, \"Already participated\");\r\n        bytes32 encryptionKey = keccak256(abi.encodePacked(msg.sender, block.timestamp));\r\n        uint256 chunkSize = 256; // Default chunk size\r\n        userData[msg.sender].encryptionKey = encryptionKey;\r\n        userData[msg.sender].chunkSize = chunkSize;\r\n        emit EncryptionKeyGenerated(msg.sender, encryptionKey, chunkSize);\r\n    }\r\n    \r\n\t// Allows users to submit data by paying a fee.\r\n    function submitData(string memory dataLocation) public payable {\r\n        require(msg.value >= fee, \"Insufficient fee\");\r\n        require(!campaign.isClosed, \"Campaign is closed\");\r\n        require(userData[msg.sender].encryptionKey != 0, \"Request encryption key first\");\r\n        require(!userData[msg.sender].isVerified, \"Already submitted\");\r\n        \r\n        userData[msg.sender].dataLocation = dataLocation;\r\n        address assignedVerifier = selectVerifier();\r\n        assignedVerifiers[msg.sender] = assignedVerifier;\r\n        \r\n        emit DataSubmitted(msg.sender, dataLocation);\r\n    }\r\n    \r\n\t// Selects a verifier for a user\r\n    function selectVerifier() internal view returns (address) {\r\n        require(verifiers.length > 0, \"No verifiers available\");\r\n        return verifiers[uint256(keccak256(abi.encodePacked(blockhash(block.number - 1), msg.sender))) % verifiers.length];\r\n    }\r\n    \r\n\t// Allows verifiers to request data for verification\r\n    function requestDataVerification(address user) public view returns (string memory, bytes32) {\r\n        require(msg.sender == assignedVerifiers[user], \"Not assigned verifier\");\r\n        return (userData[user].dataLocation, userData[user].encryptionKey);\r\n    }\r\n    \r\n\t// Allows verifiers to validate submitted data \r\n    function verifyData(address user, bool isValid) public {\r\n        require(msg.sender == assignedVerifiers[user], \"Not assigned verifier\");\r\n        require(!userData[user].isVerified, \"Data already verified\");\r\n        \r\n        userData[user].isVerified = isValid;\r\n        // If valid, the user is added to verified users, the participant count is updated and the verifier is rewarded\r\n\t\tif (isValid) {\r\n            campaign.currentParticipants += 1;\r\n            verifiedUsers.push(user);\r\n            payable(msg.sender).transfer(fee / 2); // Reward verifier\r\n            emit VerifierRewarded(msg.sender, fee / 2);\r\n        }\r\n        \r\n        emit DataVerified(msg.sender, user, isValid);\r\n    }\r\n    \r\n\t// Distributes rewards to verified users once the minimum threshold is met\r\n    function distributeRewards() public onlyOwner {\r\n        require(campaign.currentParticipants >= campaign.minParticipants, \"Threshold not met\");\r\n        require(!campaign.isClosed, \"Campaign already closed\");\r\n        require(address(this).balance >= campaign.currentParticipants * campaign.rewardAmount, \"Insufficient contract balance\");\r\n        \r\n        for (uint i = 0; i < verifiedUsers.length; i++) {\r\n            address user = verifiedUsers[i];\r\n            if (!userData[user].isRewarded) {\r\n                userData[user].isRewarded = true;\r\n                payable(user).transfer(campaign.rewardAmount);\r\n                emit RewardDistributed(user, campaign.rewardAmount);\r\n                emit EncryptionKeyShared(user, userData[user].encryptionKey);\r\n            }\r\n        }\r\n        \r\n        campaign.isClosed = true;\r\n        emit CampaignClosed();\r\n    }\r\n    \r\n\t// Allows the contract to receive ETH\r\n    receive() external payable {}\r\n    \r\n\t// Allows owner to withdraw contract balance once the campaign is closed\r\n    function withdraw() public onlyOwner {\r\n        require(campaign.isClosed, \"Campaign is still active\");\r\n\t\tpayable(owner).transfer(address(this).balance);\r\n    }\r\n}\r\n",
  "sourcePath": "C:\\Users\\trap9\\Documents\\Universit\\Magistrale\\Secondo Anno\\Primo Ciclo\\Blockchain and Cryptocurrencies\\Project\\CrowdSensingProject\\contracts\\crowd_sensing.sol",
  "compiler": {
    "name": "solc",
    "version": "0.8.21+commit.d9974bed.Emscripten.clang"
  },
  "schemaVersion": "3.4.16",
  "updatedAt": "2025-03-03T15:15:07.666Z",
  "devdoc": {
    "kind": "dev",
    "methods": {},
    "version": 1
  },
  "userdoc": {
    "kind": "user",
    "methods": {},
    "version": 1
  }
}